:020000040800F2
:1000000010040020DD010008AD0B0008A90B00085A
:10001000AB0B0008E9020008490C000800000000D2
:10002000000000000000000000000000B10B00080C
:10003000EB02000800000000AF0B0008B30B000843
:10004000F7010008F7010008F7010008F7010008B0
:10005000F7010008F7010008F7010008F7010008A0
:10006000F7010008F7010008F7010008F701000890
:10007000F7010008F7010008F7010008F701000880
:10008000F7010008F7010008F7010008F701000870
:10009000F7010008F7010008F7010008F701000860
:1000A000F7010008F7010008F7010008F701000850
:1000B000F7010008F7010008F7010008F701000840
:1000C000F7010008F7010008F7010008F701000830
:1000D000F7010008F7010008F7010008F701000820
:1000E000F7010008F7010008F7010008F701000810
:1000F000F7010008F7010008F7010008F701000800
:10010000F7010008F7010008F7010008F7010008EF
:10011000F7010008F7010008F7010008F7010008DF
:10012000F7010008F7010008F7010008F7010008CF
:10013000F70100080000000000000000F7010008BF
:10014000F7010008F7010008F7010008F7010008AF
:10015000F7010008F7010008F7010008F70100089F
:10016000F7010008F7010008F7010008F70100088F
:10017000F7010008F7010008F7010008000000007F
:1001800000000000F701000800000000000000006F
:10019000F70100080000000000000000F70100085F
:1001A000000000000000000000000000F70100084F
:1001B000F7010008F7010008F7010008F70100083F
:1001C000F7010008DFF810D000F07CF80048004785
:1001D000890C0008AFF30080100400200648804717
:1001E00006480047FEE7FEE7FEE7FEE7FEE7FEE71C
:1001F000FEE7FEE7FEE7FEE7390C0008C501000850
:100200002DE9F05F0546002092469B46884606464B
:10021000814640241BE0284641464746224600F0DE
:1002200041F853465A46C01A914110D31146184618
:10023000224600F028F82D1A67EB01084F462246A7
:100240000120002100F01FF817EB00094E41201E8D
:10025000A4F10104DFDC484631462A464346BDE8A6
:10026000F09FD2B201E000F8012B491EFBD270478B
:100270000022F6E710B513460A4604461946FFF772
:10028000F0FF204610BD202A04DB203A00FA02F1DC
:10029000002070479140C2F1200320FA03F3194374
:1002A00090407047202A04DB203A21FA02F0002116
:1002B000704721FA02F3D040C2F120029140084376
:1002C00019467047064C074D06E0E06840F0010310
:1002D00094E8070098471034AC42F6D3FFF776FF56
:1002E0000C0D00082C0D0008FEE7704770B50446A1
:1002F00000F002F90546601C02D00448007804446E
:1003000000F0FAF8401BA042FAD370BD00000020B4
:100310002DE9F84FDFF8ACA1002201240AF1040B0B
:1003200003254FF00F090BF1040E00BF0B6804FA10
:1003300002F63340B34272D10F7907F00307012F61
:1003400001D0022F16D187684FEA420805FA08FC4F
:1003500027EA0C07D1F80CC00CFA08FC4CEA070C91
:10036000C0F808C04768B7430E79C6F30016964038
:100370003E4346600E79F643B6070AD0C6684FEA98
:10038000420C05FA0CF7BE438F6807FA0CF73743A7
:10039000C7600E7906F00306022E10D1D60800EBD6
:1003A0008608D8F8206057074FEAD76C09FA0CF78F
:1003B000BE430F6907FA0CF73743C8F82070066888
:1003C0004FEA420C05FA0CF7BE430F7907F003071A
:1003D00007FA0CF7374307604E68F6006BD53A4EC4
:1003E000376847F480473760366822F0030706F421
:1003F00080460096354E07EB060CDCF80868970738
:100400004FEA177809FA08F7BE43314FB84201D1D5
:1004100000271FE02F4FB84202D101271AE04AE01F
:100420002D4FB84201D1022714E02C4FB84201D120
:1004300003270FE02A4FB84201D104270AE0294FD1
:10044000B84201D1052705E0274FB84201D1062760
:1004500000E0072707FA08F73743CCF80878DAF8FE
:1004600000605746D1F804C09E435FEACC3C00D5FB
:100470001E433E60DBF800605F46D1F804C09E4337
:100480005FEA8C3C00D51E433E60DEF80060774694
:10049000D1F804C09E435FEACC2C00D51E433E60D9
:1004A000084F0C373E68D1F804C09E435FEA8C2C9D
:1004B00000D51E433E60521C102AFFF437AFBDE842
:1004C000F88F0000003C01404438024000300140F9
:1004D000000002400004024000080240000C0240FC
:1004E0000010024000140240001802400AB181616D
:1004F00070470904FBE7000001488068704700006E
:100500000000002002488168027811448160704731
:10051000000000200B4810B5016841F40071016033
:10052000016841F480610160016841F480710160FB
:10053000032000F061F8002000F006F800F024F835
:10054000002010BD003C024070B50D4D04464FF434
:100550007A712878B1FBF0F00A490968B1FBF0F034
:1005600000F00EFB48B9102C07D200222146501E85
:1005700000F022F800206C6070BD012070BD00000A
:10058000000000200C0000200A4808B5016841F472
:1005900080410160006800F4804000900548001F21
:1005A000016841F080510160006800F080500090C7
:1005B00008BD000044380240F0B40E4B1B680C46E6
:1005C000C3F30223C3F10705042D00D90425191D27
:1005D000072901D2002300E0DB1E012606FA05F1FF
:1005E000491E214099409E40761E16403143F0BC82
:1005F00000F02BBB0CED00E0064900F00702086894
:100600004FF6FF03184040EA0220034A10430860F7
:10061000704700000CED00E00000FA052DE9F047FE
:100620000E46050065D0DFF81481D8F80000F7B257
:1006300000F00F00B04207D288F80070D8F8000030
:1006400000F00F00B04254D128683D4C810712D50C
:10065000400703D5206840F4E05020602878000768
:1006600003D5206840F4604020602068A96820F02D
:10067000F000084320602878C0072DD03049686812
:100680000839012812D0022813D0032811D0096894
:10069000890700292DDA216821F003010143216037
:1006A000FFF72AFF814641F2883A0EE00968890384
:1006B000EFE709688901ECE7FFF71EFFA0EB0901EE
:1006C000514502D90320BDE8F0872068696800F031
:1006D0000C00B0EB810FEFD1D8F80010404601F0CC
:1006E0000F01B14207D90770006800F00F00B04257
:1006F00001D00120E7E72878400705D52068E968A0
:1007000020F4E050084320602878000706D52068D0
:10071000296920F4604040EAC100206000F018F828
:100720002168084AC1F30311515CC84006490860BA
:1007300006480068FFF708FF0020C4E7003C0240BD
:1007400008380240FC0C00080C00002004000020C7
:10075000224810B5006810F00C02214815D021493C
:10076000042A11D01D4C241F082A0FD00C2A0CD1AA
:100770002268236802F03F025B0221D52068C0F3A3
:100780008810A0FB010120E0084610BD2268236804
:1007900002F03F025B0205D52068C0F38810A0FB81
:1007A000010104E02168C1F38811A1FB00010023CD
:1007B000FFF726FD2168C1F30141491C49000AE009
:1007C0002168C1F38811A1FB00010023FFF718FD88
:1007D0002168C1F30271B0FBF1F010BD083802408E
:1007E0000024F40040787D012DE9F84F04007DD00D
:1007F000DFF878B32078ABF10407C007A7F1040550
:1008000050D0DBF800105846C1F3810101290FD008
:100810000168C1F38101022902D13968490207D474
:100820000068C0F38100032809D13868400206D56A
:100830002868800336D560680028D8D032E0606828
:10084000B0F5803F10D0B0F5A02F286810D020F46C
:1008500080302860286820F4802028606068A0B17B
:10086000FFF74AFE06460CE0286840F48030F4E7C3
:1008700040F480202860F7E7FFF73EFE801B6428E5
:1008800076D828688003F7D50CE0FFF735FE0646DA
:1008900005E000BFFFF730FE801B6428F0D8286811
:1008A0008003F7D42078DFF8C89280074FF0000A61
:1008B00044D5DBF80010584611F00C0F0FD001683A
:1008C000C1F38101022902D13968490207D50068C4
:1008D000C0F3810003280AD13868400207D4286891
:1008E000800715D5E068012800D111E03AE1E06801
:1008F000B0B10120C9F80000FFF7FEFD064604E094
:10090000FFF7FAFD801B0228BAD828688007F7D5C0
:100910002868216920F0F80040EAC10028600DE055
:10092000C9F800A0FFF7E8FD064604E0FFF7E4FD84
:10093000801B02281CD828688007F7D4207800077D
:1009400027D5DFF828828B48616908F16C0881B1EE
:1009500001210160FFF7D0FD064604E0FFF7CCFD62
:10096000801B022804D8D8F800008007F6D510E0D4
:1009700089E0C0F800A0FFF7BFFD064605E000BF14
:10098000FFF7BAFD801B02287DD8D8F80000800749
:10099000F6D42078400769D574484FF00008383005
:1009A0000068C0000BD471483830016841F08051B4
:1009B000016000684FF0010800F0805000906E4E1A
:1009C0003068C00511D4306840F480703060FFF7A3
:1009D00093FD009006E000BFFFF78EFD0099401ADE
:1009E000022850D83068C005F6D5604EA068683639
:1009F00001280FD00528306810D020F001003060A9
:100A0000306820F004003060A068B8B1FFF774FDD2
:100A100000900FE0306840F00100F4E740F004007F
:100A20003060F7E7FFF768FD0099411A41F288301E
:100A3000814264D830688007F4D50EE0FFF75CFD92
:100A4000009007E0FFF758FD0099411A41F2883005
:100A5000814254D830688007F4D4B8F1000F05D033
:100A600042483830016821F080510160A069A8B384
:100A7000DBF80010C1F38101022947D00228C9F830
:100A800060A005D000E03AE0FFF736FD044639E00B
:100A9000FFF732FD064604E0FFF72EFD801B02281B
:100AA0002DD828688001F7D4F4E907010843E168EC
:100AB000324A490802EB0141A26841EA8211084327
:100AC000217C40EA0160217D40EA0170386001200C
:100AD000C9F86000FFF710FD044606E044E000BFDF
:100AE000FFF70AFD001B022809D828688001F7D506
:100AF0003AE000BFFFF700FD001B022802D90320E7
:100B0000BDE8F88F28688001F4D42DE00128F7D0E3
:100B10003868E26900F48001914223D1226A00F032
:100B20003F0191421ED147F6C071626A0140B1EBAC
:100B3000821F17D1A26A4FF0FF3300F4403103EB5C
:100B40005202B1EB024F0DD194F82C2000F07061ED
:100B5000B1EB026F06D194F8301000F0E040B0EB3A
:100B6000017F01D00120CBE70020C9E7083802400F
:100B700000004742800E4742007000400000FFFF27
:100B800010B5401EB0F1807F01D3012010BD4FF0A1
:100B9000E02460610F21601700F057F80020A06189
:100BA00007202061002010BDFEE7FEE7FEE770474A
:100BB0007047FFF7A7BC000010B594B03421684619
:100BC000FFF756FB14210DA8FFF752FB184800242D
:100BD000016841F080510160006800F0805012907F
:100BE0001448016821F4404141F4804101600068EB
:100BF000069400F4404012900220009001200390DF
:100C0000102004906846FFF7EFFD08B172B6FEE7CA
:100C10000F20CDE90D040F94109400210DA811941C
:100C2000FFF7FCFC002801D072B6FEE714B010BD3F
:100C300040380240007000400248016841F47001F1
:100C40000160704788ED00E0FEE70907090E002803
:100C500004DB00F1E02080F80014704700F00F0082
:100C600000F1E02080F8141D704702E008C8121F50
:100C700008C1002AFAD170477047002001E001C185
:100C8000121F002AFBD1704786B0FFF743FCFFF725
:100C900093FF14216846FFF7EBFA16480025016818
:100CA00041F0010101600068134C00F00100059063
:100CB0002A4620212046FFF719FC20200090012021
:100CC000CDE90105694620460395FFF721FB4FF466
:100CD000FA75012220212046FFF708FC2846FFF77D
:100CE00005FB002220212046FFF700FC2846FFF7E5
:100CF000FDFAEEE73038024000000240000000003C
:100D00000000000001020304060708092C0D00087A
:100D100000000020100000006A0C00083C0D0008D4
:100D200010000020000400007A0C00080100000000
:0C0D300010000000000000000024F4008F
:04000005080001C529
:00000001FF
